{
  "_format": "hh-sol-artifact-1",
  "contractName": "HealthcareSystem",
  "sourceName": "contracts/Guestbook.sol",
  "abi": [
    {
      "inputs": [],
      "stateMutability": "nonpayable",
      "type": "constructor"
    },
    {
      "anonymous": false,
      "inputs": [
        {
          "indexed": true,
          "internalType": "address",
          "name": "patient",
          "type": "address"
        },
        {
          "indexed": true,
          "internalType": "address",
          "name": "doctor",
          "type": "address"
        }
      ],
      "name": "AccessGranted",
      "type": "event"
    },
    {
      "anonymous": false,
      "inputs": [
        {
          "indexed": true,
          "internalType": "address",
          "name": "patient",
          "type": "address"
        },
        {
          "indexed": true,
          "internalType": "address",
          "name": "doctor",
          "type": "address"
        }
      ],
      "name": "AccessRevoked",
      "type": "event"
    },
    {
      "anonymous": false,
      "inputs": [
        {
          "indexed": true,
          "internalType": "uint256",
          "name": "appointmentId",
          "type": "uint256"
        }
      ],
      "name": "AppointmentCancelled",
      "type": "event"
    },
    {
      "anonymous": false,
      "inputs": [
        {
          "indexed": true,
          "internalType": "uint256",
          "name": "appointmentId",
          "type": "uint256"
        }
      ],
      "name": "AppointmentCompleted",
      "type": "event"
    },
    {
      "anonymous": false,
      "inputs": [
        {
          "indexed": true,
          "internalType": "uint256",
          "name": "appointmentId",
          "type": "uint256"
        },
        {
          "indexed": true,
          "internalType": "address",
          "name": "patient",
          "type": "address"
        },
        {
          "indexed": true,
          "internalType": "address",
          "name": "doctor",
          "type": "address"
        }
      ],
      "name": "AppointmentScheduled",
      "type": "event"
    },
    {
      "anonymous": false,
      "inputs": [
        {
          "indexed": true,
          "internalType": "address",
          "name": "doctor",
          "type": "address"
        },
        {
          "indexed": false,
          "internalType": "string",
          "name": "name",
          "type": "string"
        },
        {
          "indexed": false,
          "internalType": "string",
          "name": "specialization",
          "type": "string"
        }
      ],
      "name": "DoctorRegistered",
      "type": "event"
    },
    {
      "anonymous": false,
      "inputs": [
        {
          "indexed": true,
          "internalType": "address",
          "name": "doctor",
          "type": "address"
        }
      ],
      "name": "DoctorVerified",
      "type": "event"
    },
    {
      "anonymous": false,
      "inputs": [
        {
          "indexed": true,
          "internalType": "address",
          "name": "patient",
          "type": "address"
        },
        {
          "indexed": true,
          "internalType": "address",
          "name": "doctor",
          "type": "address"
        }
      ],
      "name": "MedicalRecordAdded",
      "type": "event"
    },
    {
      "anonymous": false,
      "inputs": [
        {
          "indexed": true,
          "internalType": "address",
          "name": "patient",
          "type": "address"
        },
        {
          "indexed": false,
          "internalType": "string",
          "name": "name",
          "type": "string"
        }
      ],
      "name": "PatientRegistered",
      "type": "event"
    },
    {
      "inputs": [
        {
          "internalType": "address",
          "name": "patientAddress",
          "type": "address"
        },
        {
          "internalType": "string",
          "name": "diagnosis",
          "type": "string"
        },
        {
          "internalType": "string",
          "name": "treatment",
          "type": "string"
        },
        {
          "internalType": "string",
          "name": "medicationHash",
          "type": "string"
        }
      ],
      "name": "addMedicalRecord",
      "outputs": [],
      "stateMutability": "nonpayable",
      "type": "function"
    },
    {
      "inputs": [
        {
          "internalType": "uint256",
          "name": "",
          "type": "uint256"
        }
      ],
      "name": "appointments",
      "outputs": [
        {
          "internalType": "address",
          "name": "patient",
          "type": "address"
        },
        {
          "internalType": "address",
          "name": "doctor",
          "type": "address"
        },
        {
          "internalType": "uint256",
          "name": "scheduledTime",
          "type": "uint256"
        },
        {
          "internalType": "uint256",
          "name": "duration",
          "type": "uint256"
        },
        {
          "internalType": "string",
          "name": "notes",
          "type": "string"
        },
        {
          "internalType": "bool",
          "name": "isCompleted",
          "type": "bool"
        },
        {
          "internalType": "bool",
          "name": "isCancelled",
          "type": "bool"
        },
        {
          "internalType": "uint256",
          "name": "createdAt",
          "type": "uint256"
        }
      ],
      "stateMutability": "view",
      "type": "function"
    },
    {
      "inputs": [
        {
          "internalType": "uint256",
          "name": "appointmentId",
          "type": "uint256"
        }
      ],
      "name": "cancelAppointment",
      "outputs": [],
      "stateMutability": "nonpayable",
      "type": "function"
    },
    {
      "inputs": [
        {
          "internalType": "uint256",
          "name": "appointmentId",
          "type": "uint256"
        },
        {
          "internalType": "string",
          "name": "notes",
          "type": "string"
        }
      ],
      "name": "completeAppointment",
      "outputs": [],
      "stateMutability": "nonpayable",
      "type": "function"
    },
    {
      "inputs": [
        {
          "internalType": "address",
          "name": "",
          "type": "address"
        }
      ],
      "name": "doctors",
      "outputs": [
        {
          "internalType": "string",
          "name": "name",
          "type": "string"
        },
        {
          "internalType": "string",
          "name": "specialization",
          "type": "string"
        },
        {
          "internalType": "string",
          "name": "licenseNumber",
          "type": "string"
        },
        {
          "internalType": "bool",
          "name": "isVerified",
          "type": "bool"
        },
        {
          "internalType": "bool",
          "name": "isActive",
          "type": "bool"
        },
        {
          "internalType": "uint256",
          "name": "createdAt",
          "type": "uint256"
        }
      ],
      "stateMutability": "view",
      "type": "function"
    },
    {
      "inputs": [],
      "name": "getActiveDoctors",
      "outputs": [
        {
          "internalType": "address[]",
          "name": "",
          "type": "address[]"
        }
      ],
      "stateMutability": "view",
      "type": "function"
    },
    {
      "inputs": [],
      "name": "getDoctorAppointments",
      "outputs": [
        {
          "internalType": "uint256[]",
          "name": "",
          "type": "uint256[]"
        }
      ],
      "stateMutability": "view",
      "type": "function"
    },
    {
      "inputs": [
        {
          "internalType": "address",
          "name": "patientAddress",
          "type": "address"
        }
      ],
      "name": "getMedicalRecords",
      "outputs": [
        {
          "components": [
            {
              "internalType": "address",
              "name": "doctor",
              "type": "address"
            },
            {
              "internalType": "string",
              "name": "diagnosis",
              "type": "string"
            },
            {
              "internalType": "string",
              "name": "treatment",
              "type": "string"
            },
            {
              "internalType": "string",
              "name": "medicationHash",
              "type": "string"
            },
            {
              "internalType": "uint256",
              "name": "timestamp",
              "type": "uint256"
            }
          ],
          "internalType": "struct HealthcareSystem.MedicalRecord[]",
          "name": "",
          "type": "tuple[]"
        }
      ],
      "stateMutability": "view",
      "type": "function"
    },
    {
      "inputs": [],
      "name": "getPatientAppointments",
      "outputs": [
        {
          "internalType": "uint256[]",
          "name": "",
          "type": "uint256[]"
        }
      ],
      "stateMutability": "view",
      "type": "function"
    },
    {
      "inputs": [
        {
          "internalType": "address",
          "name": "doctorAddress",
          "type": "address"
        }
      ],
      "name": "grantDoctorAccess",
      "outputs": [],
      "stateMutability": "nonpayable",
      "type": "function"
    },
    {
      "inputs": [
        {
          "internalType": "address",
          "name": "patientAddress",
          "type": "address"
        },
        {
          "internalType": "address",
          "name": "doctorAddress",
          "type": "address"
        }
      ],
      "name": "hasAccess",
      "outputs": [
        {
          "internalType": "bool",
          "name": "",
          "type": "bool"
        }
      ],
      "stateMutability": "view",
      "type": "function"
    },
    {
      "inputs": [],
      "name": "owner",
      "outputs": [
        {
          "internalType": "address",
          "name": "",
          "type": "address"
        }
      ],
      "stateMutability": "view",
      "type": "function"
    },
    {
      "inputs": [
        {
          "internalType": "address",
          "name": "",
          "type": "address"
        }
      ],
      "name": "patients",
      "outputs": [
        {
          "internalType": "string",
          "name": "name",
          "type": "string"
        },
        {
          "internalType": "uint256",
          "name": "age",
          "type": "uint256"
        },
        {
          "internalType": "string",
          "name": "medicalRecordHash",
          "type": "string"
        },
        {
          "internalType": "bool",
          "name": "isActive",
          "type": "bool"
        },
        {
          "internalType": "uint256",
          "name": "createdAt",
          "type": "uint256"
        },
        {
          "internalType": "uint256",
          "name": "updatedAt",
          "type": "uint256"
        }
      ],
      "stateMutability": "view",
      "type": "function"
    },
    {
      "inputs": [
        {
          "internalType": "string",
          "name": "name",
          "type": "string"
        },
        {
          "internalType": "string",
          "name": "specialization",
          "type": "string"
        },
        {
          "internalType": "string",
          "name": "licenseNumber",
          "type": "string"
        }
      ],
      "name": "registerDoctor",
      "outputs": [],
      "stateMutability": "nonpayable",
      "type": "function"
    },
    {
      "inputs": [
        {
          "internalType": "string",
          "name": "name",
          "type": "string"
        },
        {
          "internalType": "uint256",
          "name": "age",
          "type": "uint256"
        },
        {
          "internalType": "string",
          "name": "medicalRecordHash",
          "type": "string"
        }
      ],
      "name": "registerPatient",
      "outputs": [],
      "stateMutability": "nonpayable",
      "type": "function"
    },
    {
      "inputs": [
        {
          "internalType": "address",
          "name": "doctorAddress",
          "type": "address"
        }
      ],
      "name": "revokeDoctorAccess",
      "outputs": [],
      "stateMutability": "nonpayable",
      "type": "function"
    },
    {
      "inputs": [
        {
          "internalType": "address",
          "name": "doctorAddress",
          "type": "address"
        },
        {
          "internalType": "uint256",
          "name": "scheduledTime",
          "type": "uint256"
        },
        {
          "internalType": "uint256",
          "name": "duration",
          "type": "uint256"
        }
      ],
      "name": "scheduleAppointment",
      "outputs": [],
      "stateMutability": "nonpayable",
      "type": "function"
    },
    {
      "inputs": [
        {
          "internalType": "string",
          "name": "medicalRecordHash",
          "type": "string"
        }
      ],
      "name": "updatePatientRecord",
      "outputs": [],
      "stateMutability": "nonpayable",
      "type": "function"
    },
    {
      "inputs": [
        {
          "internalType": "address",
          "name": "doctorAddress",
          "type": "address"
        }
      ],
      "name": "verifyDoctor",
      "outputs": [],
      "stateMutability": "nonpayable",
      "type": "function"
    }
  ],
  "bytecode": "0x608060405234801561000f575f80fd5b50600880546001600160a01b03191633179055600160075561294c806100345f395ff3fe608060405234801561000f575f80fd5b506004361061011c575f3560e01c80636b9547d0116100a9578063afd8297c1161006e578063afd8297c146102b4578063c946ae0a146102d4578063d80cb05c146102e7578063fae7ffa4146102fa578063fb9aacdb1461030d575f80fd5b80636b9547d0146102345780638da5cb5b14610249578063a23ba70b14610274578063a7e644051461027c578063a9583c221461028f575f80fd5b80631d14c36e116100ef5780631d14c36e146101d55780632ea004d4146101e85780633370a18e146101fb5780633df95ab81461020e57806350c7a91214610221575f80fd5b80630869cfbc1461012057806312dc90131461014e57806312e0808f146101755780631709ef071461018a575b5f80fd5b61013361012e366004612061565b610322565b604051610145969594939291906120c4565b60405180910390f35b61016161015c36600461210d565b610467565b604051610145989796959493929190612124565b610188610183366004612061565b610545565b005b6101c561019836600461217f565b6001600160a01b039182165f90815260066020908152604080832093909416825291909152205460ff1690565b6040519015158152602001610145565b6101886101e33660046121f5565b6106cf565b6101886101f6366004612269565b61093a565b6101886102093660046122b1565b610af9565b61018861021c366004612061565b610dbc565b61018861022f366004612354565b610ea9565b61023c6111bd565b60405161014591906123e7565b60085461025c906001600160a01b031681565b6040516001600160a01b039091168152602001610145565b61023c61126f565b61018861028a36600461210d565b6112fd565b6102a261029d366004612061565b6114e7565b6040516101459695949392919061242a565b6102c76102c2366004612061565b6116b3565b6040516101459190612481565b6101886102e2366004612543565b611984565b6101886102f5366004612061565b611c47565b610188610308366004612573565b611dca565b610315611e31565b60405161014591906125b2565b5f6020819052908152604090208054819061033c906125f2565b80601f0160208091040260200160405190810160405280929190818152602001828054610368906125f2565b80156103b35780601f1061038a576101008083540402835291602001916103b3565b820191905f5260205f20905b81548152906001019060200180831161039657829003601f168201915b5050505050908060010154908060020180546103ce906125f2565b80601f01602080910402602001604051908101604052809291908181526020018280546103fa906125f2565b80156104455780601f1061041c57610100808354040283529160200191610445565b820191905f5260205f20905b81548152906001019060200180831161042857829003601f168201915b5050505060038301546004840154600590940154929360ff9091169290915086565b600260208190525f9182526040909120805460018201549282015460038301546004840180546001600160a01b03948516969094169492939192916104ab906125f2565b80601f01602080910402602001604051908101604052809291908181526020018280546104d7906125f2565b80156105225780601f106104f957610100808354040283529160200191610522565b820191905f5260205f20905b81548152906001019060200180831161050557829003601f168201915b505050506005830154600690930154919260ff8082169361010090920416915088565b335f9081526020819052604090206003015460ff1661057f5760405162461bcd60e51b81526004016105769061262a565b60405180910390fd5b6001600160a01b0381165f90815260016020526040902060030154610100900460ff1680156105c857506001600160a01b0381165f9081526001602052604090206003015460ff165b61060b5760405162461bcd60e51b8152602060048201526014602482015273446f63746f72206e6f7420617661696c61626c6560601b6044820152606401610576565b335f9081526006602090815260408083206001600160a01b038516845290915290205460ff16156106775760405162461bcd60e51b81526020600482015260166024820152751058d8d95cdcc8185b1c9958591e4819dc985b9d195960521b6044820152606401610576565b335f8181526006602090815260408083206001600160a01b0386168085529252808320805460ff19166001179055519092917f9f520b3bfc56d06f7065d10b4683b3f57ac8895d5026cd176dee95ce1454cb8d91a350565b8361070c5760405162461bcd60e51b815260206004820152600d60248201526c13985b59481c995c5d5a5c9959609a1b6044820152606401610576565b5f8311801561071b5750609683105b6107555760405162461bcd60e51b815260206004820152600b60248201526a496e76616c69642061676560a81b6044820152606401610576565b335f9081526020819052604090206003015460ff16156107b75760405162461bcd60e51b815260206004820152601a60248201527f50617469656e7420616c726561647920726567697374657265640000000000006044820152606401610576565b6040518060c0016040528086868080601f0160208091040260200160405190810160405280939291908181526020018383808284375f92019190915250505090825250602080820186905260408051601f860183900483028101830182528581529201919085908590819084018382808284375f9201829052509385525050600160208085019190915242604080860182905260609095015233835282905250208151819061086690826126c1565b50602082015160018201556040820151600282019061088590826126c1565b50606082015160038201805460ff19169115159190911790556080820151600482015560a090910151600590910155600a80546001810182555f919091527fc65a7bb8d6351c1cf70c95a316cc6a92839c986682d98bc35f958f4883f9d2a8018054336001600160a01b031990911681179091556040517fc85b128388b9c331a2a5485dce4cd0f3db9f7c279d327ce95d6d39d6c94644c79061092b90889088906127a9565b60405180910390a25050505050565b335f90815260016020526040902060030154610100900460ff1680156109715750335f9081526001602052604090206003015460ff165b61098d5760405162461bcd60e51b8152600401610576906127c4565b5f838152600260205260409020600101546001600160a01b031633146109ec5760405162461bcd60e51b8152602060048201526014602482015273139bdd081e5bdd5c88185c1c1bda5b9d1b595b9d60621b6044820152606401610576565b5f8381526002602052604090206005015460ff1615610a415760405162461bcd60e51b8152602060048201526011602482015270105b1c9958591e4818dbdb5c1b195d1959607a1b6044820152606401610576565b5f83815260026020526040902060050154610100900460ff1615610a9f5760405162461bcd60e51b8152602060048201526015602482015274105c1c1bda5b9d1b595b9d0818d85b98d95b1b1959605a1b6044820152606401610576565b5f83815260026020526040902060058101805460ff19166001179055600401610ac98284836127f3565b5060405183907f96f7f7d72a3fe4b137949271ceab16ab2121be2faeda69bb82794730701668ca905f90a2505050565b335f90815260016020526040902060030154610100900460ff168015610b305750335f9081526001602052604090206003015460ff165b610b4c5760405162461bcd60e51b8152600401610576906127c4565b6001600160a01b0387165f9081526020819052604090206003015460ff16610baa5760405162461bcd60e51b815260206004820152601160248201527014185d1a595b9d081b9bdd08199bdd5b99607a1b6044820152606401610576565b6001600160a01b0387165f90815260066020908152604080832033845290915290205460ff16610c1c5760405162461bcd60e51b815260206004820152601d60248201527f416363657373206e6f74206772616e7465642062792070617469656e740000006044820152606401610576565b5f6040518060a00160405280336001600160a01b0316815260200188888080601f0160208091040260200160405190810160405280939291908181526020018383808284375f92019190915250505090825250604080516020601f8901819004810282018101909252878152918101919088908890819084018382808284375f92019190915250505090825250604080516020601f8701819004810282018101909252858152918101919086908690819084018382808284375f920182905250938552505042602093840152506001600160a01b038b811682526005808452604083208054600180820183559185529385902086519490920290910180546001600160a01b0319169390921692909217815591830151929350839290820190610d4590826126c1565b5060408201516002820190610d5a90826126c1565b5060608201516003820190610d6f90826126c1565b506080919091015160049091015560405133906001600160a01b038a16907fc545d805a072eb6bc584d8363c500f6a99bf621f47fa6d97296f9c389a35a0a8905f90a35050505050505050565b335f9081526020819052604090206003015460ff16610ded5760405162461bcd60e51b81526004016105769061262a565b335f9081526006602090815260408083206001600160a01b038516845290915290205460ff16610e545760405162461bcd60e51b81526020600482015260126024820152711058d8d95cdcc81b9bdd0819dc985b9d195960721b6044820152606401610576565b335f8181526006602090815260408083206001600160a01b0386168085529252808320805460ff19169055519092917f825c8be24eb0df19500f63e86c29e7d0d951e73056b889b891d85e40938d9b6e91a350565b84610ee65760405162461bcd60e51b815260206004820152600d60248201526c13985b59481c995c5d5a5c9959609a1b6044820152606401610576565b82610f335760405162461bcd60e51b815260206004820152601760248201527f5370656369616c697a6174696f6e2072657175697265640000000000000000006044820152606401610576565b80610f805760405162461bcd60e51b815260206004820152601760248201527f4c6963656e7365206e756d6265722072657175697265640000000000000000006044820152606401610576565b335f90815260016020526040902060030154610100900460ff1615610fe75760405162461bcd60e51b815260206004820152601960248201527f446f63746f7220616c72656164792072656769737465726564000000000000006044820152606401610576565b6040518060c0016040528087878080601f0160208091040260200160405190810160405280939291908181526020018383808284375f92019190915250505090825250604080516020601f8801819004810282018101909252868152918101919087908790819084018382808284375f92019190915250505090825250604080516020601f8601819004810282018101909252848152918101919085908590819084018382808284375f92018290525093855250505060208083018290526001604080850182905242606090950194909452338352905220815181906110cd90826126c1565b50602082015160018201906110e290826126c1565b50604082015160028201906110f790826126c1565b506060820151600382018054608085015115156101000261ff00199315159390931661ffff199091161791909117905560a090910151600490910155600980546001810182555f919091527f6e1540171b6c0c960b71a7020d9f60077f6af931a8bbf590da0223dacf75c7af0180546001600160a01b031916339081179091556040517fbc3a5b2aeb1bc52e3d56d3fd3423dd66cea5ecff8ae1f3bd0d75a0e608da7b85906111ad9089908990899089906128ad565b60405180910390a2505050505050565b335f90815260016020526040902060030154606090610100900460ff1680156111f75750335f9081526001602052604090206003015460ff165b6112135760405162461bcd60e51b8152600401610576906127c4565b335f908152600460209081526040918290208054835181840281018401909452808452909183018282801561126557602002820191905f5260205f20905b815481526020019060010190808311611251575b5050505050905090565b335f9081526020819052604090206003015460609060ff166112a35760405162461bcd60e51b81526004016105769061262a565b335f908152600360209081526040918290208054835181840281018401909452808452909183018282801561126557602002820191905f5260205f2090815481526020019060010190808311611251575050505050905090565b335f9081526020819052604090206003015460ff168061134f5750335f90815260016020526040902060030154610100900460ff16801561134f5750335f9081526001602052604090206003015460ff165b61138b5760405162461bcd60e51b815260206004820152600d60248201526c1058d8d95cdcc819195b9a5959609a1b6044820152606401610576565b5f81815260026020526040902080546001600160a01b03163314806113bc575060018101546001600160a01b031633145b6113f95760405162461bcd60e51b815260206004820152600e60248201526d139bdd08185d5d1a1bdc9a5e995960921b6044820152606401610576565b600581015460ff161561145a5760405162461bcd60e51b815260206004820152602360248201527f43616e6e6f742063616e63656c20636f6d706c65746564206170706f696e746d604482015262195b9d60ea1b6064820152608401610576565b6005810154610100900460ff16156114a85760405162461bcd60e51b8152602060048201526011602482015270105b1c9958591e4818d85b98d95b1b1959607a1b6044820152606401610576565b60058101805461ff00191661010017905560405182907f4b0e2b6047be1a990287b0818b6f06236be270f55a306ec58398d8b9aa7f6e73905f90a25050565b60016020525f9081526040902080548190611501906125f2565b80601f016020809104026020016040519081016040528092919081815260200182805461152d906125f2565b80156115785780601f1061154f57610100808354040283529160200191611578565b820191905f5260205f20905b81548152906001019060200180831161155b57829003601f168201915b50505050509080600101805461158d906125f2565b80601f01602080910402602001604051908101604052809291908181526020018280546115b9906125f2565b80156116045780601f106115db57610100808354040283529160200191611604565b820191905f5260205f20905b8154815290600101906020018083116115e757829003601f168201915b505050505090806002018054611619906125f2565b80601f0160208091040260200160405190810160405280929190818152602001828054611645906125f2565b80156116905780601f1061166757610100808354040283529160200191611690565b820191905f5260205f20905b81548152906001019060200180831161167357829003601f168201915b505050506003830154600490930154919260ff8082169361010090920416915086565b6060336001600160a01b038316148061170a5750335f9081526001602052604090206003015460ff16801561170a57506001600160a01b0382165f90815260066020908152604080832033845290915290205460ff165b6117465760405162461bcd60e51b815260206004820152600d60248201526c1058d8d95cdcc819195b9a5959609a1b6044820152606401610576565b6001600160a01b0382165f90815260056020908152604080832080548251818502810185019093528083529193909284015b82821015611979575f8481526020908190206040805160a081019091526005850290910180546001600160a01b0316825260018101805492939192918401916117c0906125f2565b80601f01602080910402602001604051908101604052809291908181526020018280546117ec906125f2565b80156118375780601f1061180e57610100808354040283529160200191611837565b820191905f5260205f20905b81548152906001019060200180831161181a57829003601f168201915b50505050508152602001600282018054611850906125f2565b80601f016020809104026020016040519081016040528092919081815260200182805461187c906125f2565b80156118c75780601f1061189e576101008083540402835291602001916118c7565b820191905f5260205f20905b8154815290600101906020018083116118aa57829003601f168201915b505050505081526020016003820180546118e0906125f2565b80601f016020809104026020016040519081016040528092919081815260200182805461190c906125f2565b80156119575780601f1061192e57610100808354040283529160200191611957565b820191905f5260205f20905b81548152906001019060200180831161193a57829003601f168201915b5050505050815260200160048201548152505081526020019060010190611778565b505050509050919050565b335f9081526020819052604090206003015460ff166119b55760405162461bcd60e51b81526004016105769061262a565b6001600160a01b0383165f90815260016020526040902060030154610100900460ff1680156119fe57506001600160a01b0383165f9081526001602052604090206003015460ff165b611a415760405162461bcd60e51b8152602060048201526014602482015273446f63746f72206e6f7420617661696c61626c6560601b6044820152606401610576565b428211611a905760405162461bcd60e51b815260206004820152601860248201527f496e76616c6964206170706f696e746d656e742074696d6500000000000000006044820152606401610576565b5f8111611ad25760405162461bcd60e51b815260206004820152601060248201526f24b73b30b634b210323ab930ba34b7b760811b6044820152606401610576565b600780545f9182611ae2836128de565b9091555060408051610100810182523381526001600160a01b03878116602080840191825283850189815260608501898152865180840188525f8082526080880191825260a0880181905260c088018190524260e089015289815260029485905297909720865181549087166001600160a01b03199182161782559451600182018054919097169516949094179094555190820155905160038201559151929350916004820190611b9390826126c1565b5060a082015160058201805460c085015115156101000261ff00199315159390931661ffff199091161791909117905560e090910151600690910155335f818152600360209081526040808320805460018181018355918552838520018690556001600160a01b03891680855260048452828520805492830181558552928420018590555190929184917f1488752b96e5bbb011f0d209e12553f9da0d1ca8dbebbf2c7292dee405d1e31d9190a450505050565b6008546001600160a01b03163314611cac5760405162461bcd60e51b815260206004820152602260248201527f4f6e6c79206f776e65722063616e20706572666f726d2074686973206163746960448201526137b760f11b6064820152608401610576565b6001600160a01b0381165f90815260016020526040902060030154610100900460ff16611d0e5760405162461bcd60e51b815260206004820152601060248201526f111bd8dd1bdc881b9bdd08199bdd5b9960821b6044820152606401610576565b6001600160a01b0381165f9081526001602052604090206003015460ff1615611d795760405162461bcd60e51b815260206004820152601760248201527f446f63746f7220616c72656164792076657269666965640000000000000000006044820152606401610576565b6001600160a01b0381165f818152600160208190526040808320600301805460ff1916909217909155517fb0859f2cf042b300c8948cdd785ec6a23a3742bc5446c19f4b270b67fac2c9679190a250565b335f9081526020819052604090206003015460ff16611dfb5760405162461bcd60e51b81526004016105769061262a565b335f908152602081905260409020600201611e178284836127f3565b5050335f9081526020819052604090204260059091015550565b60605f805b600954811015611ee95760015f60098381548110611e5657611e56612902565b5f9182526020808320909101546001600160a01b0316835282019290925260400190206003015460ff610100909104168015611ece575060015f60098381548110611ea357611ea3612902565b5f9182526020808320909101546001600160a01b0316835282019290925260400190206003015460ff165b15611ee15781611edd816128de565b9250505b600101611e36565b505f8167ffffffffffffffff811115611f0457611f04612661565b604051908082528060200260200182016040528015611f2d578160200160208202803683370190505b5090505f805b60095481101561203d5760015f60098381548110611f5357611f53612902565b5f9182526020808320909101546001600160a01b0316835282019290925260400190206003015460ff610100909104168015611fcb575060015f60098381548110611fa057611fa0612902565b5f9182526020808320909101546001600160a01b0316835282019290925260400190206003015460ff165b156120355760098181548110611fe357611fe3612902565b5f918252602090912001546001600160a01b03168383612002816128de565b94508151811061201457612014612902565b60200260200101906001600160a01b031690816001600160a01b0316815250505b600101611f33565b50909392505050565b80356001600160a01b038116811461205c575f80fd5b919050565b5f60208284031215612071575f80fd5b61207a82612046565b9392505050565b5f81518084525f5b818110156120a557602081850181015186830182015201612089565b505f602082860101526020601f19601f83011685010191505092915050565b60c081525f6120d660c0830189612081565b87602084015282810360408401526120ee8188612081565b95151560608401525050608081019290925260a0909101529392505050565b5f6020828403121561211d575f80fd5b5035919050565b6001600160a01b038981168252881660208201526040810187905260608101869052610100608082018190525f9061215e83820188612081565b95151560a0840152505091151560c083015260e09091015295945050505050565b5f8060408385031215612190575f80fd5b61219983612046565b91506121a760208401612046565b90509250929050565b5f8083601f8401126121c0575f80fd5b50813567ffffffffffffffff8111156121d7575f80fd5b6020830191508360208285010111156121ee575f80fd5b9250929050565b5f805f805f60608688031215612209575f80fd5b853567ffffffffffffffff80821115612220575f80fd5b61222c89838a016121b0565b909750955060208801359450604088013591508082111561224b575f80fd5b50612258888289016121b0565b969995985093965092949392505050565b5f805f6040848603121561227b575f80fd5b83359250602084013567ffffffffffffffff811115612298575f80fd5b6122a4868287016121b0565b9497909650939450505050565b5f805f805f805f6080888a0312156122c7575f80fd5b6122d088612046565b9650602088013567ffffffffffffffff808211156122ec575f80fd5b6122f88b838c016121b0565b909850965060408a0135915080821115612310575f80fd5b61231c8b838c016121b0565b909650945060608a0135915080821115612334575f80fd5b506123418a828b016121b0565b989b979a50959850939692959293505050565b5f805f805f8060608789031215612369575f80fd5b863567ffffffffffffffff80821115612380575f80fd5b61238c8a838b016121b0565b909850965060208901359150808211156123a4575f80fd5b6123b08a838b016121b0565b909650945060408901359150808211156123c8575f80fd5b506123d589828a016121b0565b979a9699509497509295939492505050565b602080825282518282018190525f9190848201906040850190845b8181101561241e57835183529284019291840191600101612402565b50909695505050505050565b60c081525f61243c60c0830189612081565b828103602084015261244e8189612081565b905082810360408401526124628188612081565b95151560608401525050911515608083015260a0909101529392505050565b5f60208083018184528085518083526040925060408601915060408160051b8701018488015f5b8381101561253557888303603f19018552815180516001600160a01b031684528781015160a0898601819052906124e182870182612081565b91505087820151858203898701526124f98282612081565b915050606080830151868303828801526125138382612081565b60809485015197909401969096525050948701949250908601906001016124a8565b509098975050505050505050565b5f805f60608486031215612555575f80fd5b61255e84612046565b95602085013595506040909401359392505050565b5f8060208385031215612584575f80fd5b823567ffffffffffffffff81111561259a575f80fd5b6125a6858286016121b0565b90969095509350505050565b602080825282518282018190525f9190848201906040850190845b8181101561241e5783516001600160a01b0316835292840192918401916001016125cd565b600181811c9082168061260657607f821691505b60208210810361262457634e487b7160e01b5f52602260045260245ffd5b50919050565b60208082526018908201527f4f6e6c7920726567697374657265642070617469656e74730000000000000000604082015260600190565b634e487b7160e01b5f52604160045260245ffd5b601f8211156126bc57805f5260205f20601f840160051c8101602085101561269a5750805b601f840160051c820191505b818110156126b9575f81556001016126a6565b50505b505050565b815167ffffffffffffffff8111156126db576126db612661565b6126ef816126e984546125f2565b84612675565b602080601f831160018114612722575f841561270b5750858301515b5f19600386901b1c1916600185901b178555612779565b5f85815260208120601f198616915b8281101561275057888601518255948401946001909101908401612731565b508582101561276d57878501515f19600388901b60f8161c191681555b505060018460011b0185555b505050505050565b81835281816020850137505f828201602090810191909152601f909101601f19169091010190565b602081525f6127bc602083018486612781565b949350505050565b6020808252601590820152744f6e6c7920766572696669656420646f63746f727360581b604082015260600190565b67ffffffffffffffff83111561280b5761280b612661565b61281f8361281983546125f2565b83612675565b5f601f841160018114612850575f85156128395750838201355b5f19600387901b1c1916600186901b1783556126b9565b5f83815260208120601f198716915b8281101561287f578685013582556020948501946001909201910161285f565b508682101561289b575f1960f88860031b161c19848701351681555b505060018560011b0183555050505050565b604081525f6128c0604083018688612781565b82810360208401526128d3818587612781565b979650505050505050565b5f600182016128fb57634e487b7160e01b5f52601160045260245ffd5b5060010190565b634e487b7160e01b5f52603260045260245ffdfea2646970667358221220f40ba212cd9c705b69eadc805013adfc91aacac0644f74738178c02ef930dced64736f6c63430008180033",
  "linkReferences": {},
  "deployedLinkReferences": {}
}